:100000004FC156C155C154C153C152C151C150C154
:100010004FC14EC14DC14CC14BC14AC149C1070678
:1000200007040904310508070607040B0425050A1F
:100030000706070409042705080506090611040F29
:10004000050E050607060B04250508070609042BFF
:1000500005060706090425050807060D041D050801
:1000600007060904250508070409041F05080706F3
:100070000B041B050807060B041B050807060D04E7
:1000800015050805060B041F050607060F040B05DA
:100090000C070609041D05060706130403050E07D1
:1000A000060B04170508070627050609042307069B
:1000B0000B0417050809040F0403050C05060B04BF
:1000C00017050809042305060B0415050807040D88
:1000D0000409050A07062505060B0411050A09048B
:1000E0002105060D040F050807040D0405050C077E
:1000F0000623070623050407041B07060904130546
:1001000008090419050609041905060B0411050858
:1001100009041B070611020D05060B04110506074D
:10012000041F07061F07061F07061F07061D0506F3
:100130000F0403050C09041B07040B0407050A0937
:10014000041907061D050407041305060904130511
:10015000060B040D0508090413050609041105061C
:10016000090411050607041505060B040B05080B09
:10017000040F050609040F05080B040B0508090404
:100180001105060B040B05080B040D0506090411E7
:1001900005060D0405050A090411050621070417C3
:1001A000070617050409040D050609040D050607D1
:1001B000041305061D07041907041907061305068D
:1001C0001F09040F050609040B050607041105069F
:1001D0001D07041707041707041907041505041D54
:1001E00007041307061507061507041B0B040B0568
:1001F000061D07041307061307061505041D0D0445
:1002000003050809040D05061907041709040D055F
:10021000061D0D04030508090409050607040D055C
:10022000061907041307060F05061B09040B05062C
:100230001B09040B05061907041309040F05041B09
:1002400009040705081B09040905061B09040B0717
:10025000061307060D05061B1B07040D05061507EB
:1002600004130704110704150B04050508190D04F0
:100270000305060B04030508190B040305081B1BE3
:100280000904050508191B09040505081707040DCD
:1002900005061307040F0504170B040305081100D6
:1002A00011241FBECFE5D2E0DEBFCDBF5BD0B7C00B
:1002B000A7CEC09AE3EFF1E03197F1F700C000005C
:1002C000C098019740F039F0880F991F880F991F47
:1002D00001970000E9F700000895BA9AC29885B71F
:1002E000877E806185BF85B7806285BFF8948895D9
:1002F000FFCFC198BA98C29803C08CEB92E0D9DFC7
:10030000B299FBCFC19ABA9AC29A8FE493EC019743
:10031000F1F700C00000C8E0D0E08DE893E0C9DF4D
:100320002197D9F7BA98C29887E893E10197F1F736
:1003300000C00000B29BE7CFBA9AC29ACEEED2E0DC
:100340008DE893E0B6DF2197D9F78FEE9EEBADEA0B
:10035000BEED8093600090936100A0936200B09323
:100360006300BBDF8FE493EC0197F1F700C000005E
:10037000B89AB99ABA98C19A809160009091610038
:10038000A0916200B09163008F3E9E4BAD4ABE4D7E
:1003900009F0AFDF109260001092610010926200CD
:1003A00010926300E2E080E090E060E029E135E156
:1003B000C09AA3EFB1E01197F1F700C00000C09818
:1003C000D901119740F039F0AA0FBB1FAA0FBB1F2C
:1003D00011970000E9F700006F5FE1F4E23028F0C8
:1003E000E150B3E0BA95F1F718C0813842E09407C4
:1003F00080F4FC01E25EFF4FE491E0FF03C041E0C6
:1004000050E002C04FEF5FEF240F351FE6950196D5
:10041000CFCF63DFA4E0AA95F1F70000C9CFF8942D
:02042000FFCF0C
:00000001FF
