:100000000EC015C014C013C012C011C010C00FC064
:100010000EC00DC00CC00BC00AC009C008C011241E
:100020001FBECFE5D2E0DEBFCDBF19D04BC0E8CFB9
:1000300098E012C0C09A24E02A95F1F7C098E4E055
:10004000EA95F1F78150B1F7E0E2F7E03197F1F787
:1000500000C00000915011F080E1ECCF0895C19AEA
:10006000C29AC39A26E02A95F1F700C0B39B03C059
:10007000CCE3D0E002C0C8E7D0E0B19902C0C4EB45
:10008000D0E0B29902C0CCE2D1E018BAB89AD0DF81
:1000900080E090E03FE34DE023E0315040402040DD
:1000A000E1F700C000000196C817D90798F7C0DF34
:1000B0003FE744E88EE1315040408040E1F700C026
:0800C0000000E5CFF894FFCF2A
:00000001FF
